:104400003140004415425C0175F335D0085A3F40F5
:1044100000000F93072482455C012F839F4F544770
:104420000024F9233F40A0050F93062482455C0138
:104430001F83CF430024FA232182B240805A5C01BB
:104440005F43B01224466F43B01224467F400300FE
:10445000B0122446B0120645B012F245B012DE4545
:10446000D2D30402E2D2050282430005B240110019
:1044700002058243040582430605B240C4033005A9
:104480003E4001240F43824E3205824F34053E40A8
:10449000CE05824E3605824F3805B2409F053A055B
:1044A00032D2B2D010003005D2420024CE050A4FDD
:1044B0001A53D2E3020232D010000F4A8F103FF09D
:1044C000FF0012C30F100F11474F77503C00484AAE
:1044D000494A4B43C14901004F4B4F58C14F00005F
:1044E0004F474F8BC14F02000E414F4BB0120C474C
:1044F0005B5369527B903C00ED23DA3F32D0F000F1
:10450000FD3F3040524732C20343F2D00C004A0212
:104510001F4266013FF08FFF3FD02000824F6601AF
:10452000B2D0000268010F423FF0400032D040009C
:1045300082436001B24071006201B2402602640110
:1045400032C040007E40640003433D4054551D830B
:10455000FE237E53F923063CB2F0F4FF6E01B2F065
:10456000FDFF02011E4202012EF3F6231D426801E7
:104570003DF0F8FF3DD00300824D68011D42680107
:104580003DF0FFF83DD00002824D68011D426801F8
:104590003DF08FFF3DD03000824D6801824E6E01AC
:1045A00002DF30410F120E12B2502C015203B2D072
:1045B000140030053E4001240F43824E3205824FE5
:1045C0003405D2420024CE053E413F410013B29053
:1045D00006000E050320B1C0100000000013B24019
:1045E00010004203B2402C015203B24024014003A8
:1045F0003041F2D018002A02F2D080FF0B02D2D351
:10460000C005F2D06900C105F2D080FFC005F240BC
:104610000300C605C243C705C243C805F2F0FEFF4A
:10462000C00530410B120A120912F240A5FF210108
:104630001C422E01B2F088CC2E011B4224011942EB
:10464000260182432C014E4F0A4E3AD00044824A42
:104650002401B2B010002C01FC27B2F0EFFF2C01B6
:104660001D422C013DF020001224B2F0EFFF2C017E
:10467000824B2401B2B010002C01FC27B2F088FF5D
:104680002C01824C2E01C24321010F43253C8E1088
:1046900082DE2401B2F0EFFF2C01C24F20010EDABE
:1046A000824E2601B2F0FEFF2C01B2F00703260174
:1046B0000F493FF0F8FC82DF2601B2F00703240126
:1046C0003BF0F8FC82DB2401B2F088FF2C01824C25
:1046D0002E01C24D21011F4339413A413B41304136
:1046E0000B127C427D4080FF4B4D4BFE0424FF406B
:1046F000F8FF0000033CFF40E0FF00007C5304246F
:1047000012C34D101F53F03F3B4130410B120A12B0
:104710000A4E4F4F0B4F0B5B0B5B0B5B0B5B0F5F43
:104720000F5F0F5F0B5F3B5000245E4E01000F4B8D
:10473000B012E0466E4A0F4B3F52B012E0465E4A5E
:1047400002000F4B3F501000B012E0463A413B418F
:0447500030410013E1
:10FF80000245024502450245024502450245024539
:10FF90000245024502450245024502450245024529
:10FFA0000245024502450245024502450245024519
:10FFB0000245024502450245024502450245024509
:10FFC00002450245024502450245024502450245F9
:10FFD00002450245024502450245024502450245E9
:10FFE00002450245CE4502450245A445024502456B
:10FFF00002450245024502450245024502450044CC
:0400000300004400B5
:00000001FF
